:1000000000308A001828000025308400831300087F
:10001000031917280630F800F701F70B0D28F80B25
:100020000C287B30F700F70B1328800B0A280800F8
:1000300003081F398300A101A0012214FF30A3008F
:10004000831603170908C039890003131F129F1272
:100050000030031788008312870188018901831308
:100060000030F800063803139200FF308316920028
:1000700083122311230883168700831207110C3083
:10008000970083169B019C0101309D008312071489
:10009000231023088316870083128710A3102308D8
:1000A00083168700831222142108033C031C7B283B
:1000B000031D5E282008FB3C031C7B28221C7B2898
:1000C0000530A0070318A10A2108F9002008F8004C
:1000D000F90CF80CF90CF80CF90C78089500F90CEF
:1000E000790C3039F7001708CF397704970028309A
:1000F000A500042054282210A108031D83282008ED
:10010000053C0318A2282218A2280530A0020030BE
:10011000031C0130A1022108F9002008F800F90CA5
:10012000F80CF90CF80CF90C78089500F90C790C1E
:100130003039F7001708CF39770497002830A50029
:1001400004207C282214071023102308831687001C
:1001500083128710A31023088316870004308312AC
:10016000A400FA30A5000420A40BB1280710231026
:1001700023088316870083128714A310230883168D
:100180008700831222142108033C031CEA28031D64
:10019000CD282008FB3C031CEA28221CEA28053055
:1001A000A0070318A10A2108F9002008F800F90C9B
:1001B000F80CF90CF80CF90C78089500F90C790C8E
:1001C0003039F7001708CF39770497002830A50099
:1001D0000420C3282210A108031DF2282008053C92
:1001E00003181129221811290530A0020030031C20
:1001F0000130A1022108F9002008F800F90CF80CE0
:10020000F90CF80CF90C78089500F90C790C3039D8
:10021000F7001708CF39770497002830A50004208D
:10022000EB2822140710231023088316870083125B
:100230008710A31023088316870002308312A400BE
:0E024000FA30A5000420A40B202947286300F3
:04400E00E22FFF3F5F
:00000001FF
;PIC16F887
;CRC=C826  CREATED="30-ago.-23 09:22"
