:1000000000308A001828000025308400831300087F
:10001000031917280630F800F701F70B0D28F80B25
:100020000C287B30F700F70B1328800B0A280800F8
:1000300003081F398300A101A0012214FF30A3008F
:1000400083161F149F141F159F1107309C008313E4
:100050000030F800063883129200FF3083169200B9
:1000600083122311230883168700831207110C3093
:100070009700071423102308831687008312871024
:10008000A310230883168700831222142108033C3F
:10009000031C6D28031D50282008FB3C031C6D2801
:1000A000221C6D280530A0070318A10A2108F900B9
:1000B0002008F800F90CF80CF90CF80CF90C780889
:1000C0009500F90C790C3039F7001708CF3977040F
:1000D00097002830A500042046282210A108031DFF
:1000E00075282008053C0318942822189428053008
:1000F000A0020030031C0130A1022108F9002008F1
:10010000F800F90CF80CF90CF80CF90C78089500CB
:10011000F90C790C3039F7001708CF3977049700BC
:100120002830A50004206E2822140710231023086D
:100130008316870083128710A31023088316870075
:1001400004308312A400FA30A5000420A40BA328D5
:100150000710231023088316870083128714A31027
:10016000230883168700831222142108033C031CF2
:10017000DC28031DBF282008FB3C031CDC28221CB4
:10018000DC280530A0070318A10A2108F90020087F
:10019000F800F90CF80CF90CF80CF90C780895003B
:1001A000F90C790C3039F7001708CF39770497002C
:1001B0002830A5000420B5282210A108031DE4283A
:1001C0002008053C03180329221803290530A00242
:1001D0000030031C0130A1022108F9002008F800BA
:1001E000F90CF80CF90CF80CF90C78089500F90CDE
:1001F000790C3039F7001708CF3977049700283089
:10020000A5000420DD2822140710231023088316DC
:10021000870083128710A3102308831687000230FB
:100220008312A400FA30A5000420A40B1229392857
:02023000630069
:02400E00723FFF
:00000001FF
;PIC16F877A
;CRC=3870  CREATED="30-ago.-23 09:21"
